{
  "_format": "hh-sol-artifact-1",
  "contractName": "NFTFactory",
  "sourceName": "contracts/NFTFactory.sol",
  "abi": [
    {
      "anonymous": false,
      "inputs": [
        {
          "indexed": false,
          "internalType": "uint256",
          "name": "_clientId",
          "type": "uint256"
        },
        {
          "indexed": false,
          "internalType": "address",
          "name": "_clientAddress",
          "type": "address"
        },
        {
          "indexed": false,
          "internalType": "string",
          "name": "_name",
          "type": "string"
        },
        {
          "indexed": false,
          "internalType": "string",
          "name": "_symbol",
          "type": "string"
        },
        {
          "indexed": false,
          "internalType": "address",
          "name": "_contractAddress",
          "type": "address"
        }
      ],
      "name": "CreateNFTEvent",
      "type": "event"
    },
    {
      "inputs": [
        {
          "internalType": "uint256",
          "name": "",
          "type": "uint256"
        },
        {
          "internalType": "uint256",
          "name": "",
          "type": "uint256"
        }
      ],
      "name": "childContracts",
      "outputs": [
        {
          "internalType": "address",
          "name": "",
          "type": "address"
        }
      ],
      "stateMutability": "view",
      "type": "function"
    },
    {
      "inputs": [
        {
          "internalType": "uint256",
          "name": "_clientId",
          "type": "uint256"
        },
        {
          "internalType": "address",
          "name": "_clientAddress",
          "type": "address"
        },
        {
          "internalType": "string",
          "name": "_name",
          "type": "string"
        },
        {
          "internalType": "string",
          "name": "_symbol",
          "type": "string"
        }
      ],
      "name": "createNFT",
      "outputs": [],
      "stateMutability": "nonpayable",
      "type": "function"
    }
  ],
  "bytecode": "0x608060405234801561001057600080fd5b50611d07806100206000396000f3fe608060405234801561001057600080fd5b50600436106100355760003560e01c806299d4381461003a578063c4a850291461004f575b600080fd5b61004d6100483660046101cb565b61009f565b005b61008361005d366004610263565b60016020908152600092835260408084209091529082529020546001600160a01b031681565b6040516001600160a01b03909116815260200160405180910390f35b600085858585856040516100b290610175565b6100c09594939291906102ae565b604051809103906000f0801580156100dc573d6000803e3d6000fd5b50600088815260016020818152604080842084548552909152822080546001600160a01b0319166001600160a01b03851617905581549293509181906101239084906102f2565b90915550506040517f955ed2ed760f7e8cd669cea37101a99b0ab449cfbc2574ac54745e3c57ba69ba90610164908990899089908990899089908990610319565b60405180910390a150505050505050565b6119648061036e83390190565b60008083601f84011261019457600080fd5b50813567ffffffffffffffff8111156101ac57600080fd5b6020830191508360208285010111156101c457600080fd5b9250929050565b600080600080600080608087890312156101e457600080fd5b8635955060208701356001600160a01b038116811461020257600080fd5b9450604087013567ffffffffffffffff8082111561021f57600080fd5b61022b8a838b01610182565b9096509450606089013591508082111561024457600080fd5b5061025189828a01610182565b979a9699509497509295939492505050565b6000806040838503121561027657600080fd5b50508035926020909101359150565b81835281816020850137506000828201602090810191909152601f909101601f19169091010190565b6001600160a01b03861681526060602082018190526000906102d39083018688610285565b82810360408401526102e6818587610285565b98975050505050505050565b8082018082111561031357634e487b7160e01b600052601160045260246000fd5b92915050565b878152600060018060a01b03808916602084015260a0604084015261034260a08401888a610285565b8381036060850152610355818789610285565b9250508084166080840152509897505050505050505056fe60806040523480156200001157600080fd5b506040516200196438038062001964833981016040819052620000349162000145565b818160006200004483826200025e565b5060016200005382826200025e565b5050600880546001600160a01b0319166001600160a01b039590951694909417909355506200032a915050565b634e487b7160e01b600052604160045260246000fd5b600082601f830112620000a857600080fd5b81516001600160401b0380821115620000c557620000c562000080565b604051601f8301601f19908116603f01168101908282118183101715620000f057620000f062000080565b816040528381526020925086838588010111156200010d57600080fd5b600091505b8382101562000131578582018301518183018401529082019062000112565b600093810190920192909252949350505050565b6000806000606084860312156200015b57600080fd5b83516001600160a01b03811681146200017357600080fd5b60208501519093506001600160401b03808211156200019157600080fd5b6200019f8783880162000096565b93506040860151915080821115620001b657600080fd5b50620001c58682870162000096565b9150509250925092565b600181811c90821680620001e457607f821691505b6020821081036200020557634e487b7160e01b600052602260045260246000fd5b50919050565b601f8211156200025957600081815260208120601f850160051c81016020861015620002345750805b601f850160051c820191505b81811015620002555782815560010162000240565b5050505b505050565b81516001600160401b038111156200027a576200027a62000080565b62000292816200028b8454620001cf565b846200020b565b602080601f831160018114620002ca5760008415620002b15750858301515b600019600386901b1c1916600185901b17855562000255565b600085815260208120601f198616915b82811015620002fb57888601518255948401946001909101908401620002da565b50858210156200031a5787850151600019600388901b60f8161c191681555b5050505050600190811b01905550565b61162a806200033a6000396000f3fe608060405234801561001057600080fd5b50600436106100ea5760003560e01c806370a082311161008c578063b88d4fde11610066578063b88d4fde146101e1578063c87b56dd146101f4578063d0def52114610207578063e985e9c51461021a57600080fd5b806370a08231146101a557806395d89b41146101c6578063a22cb465146101ce57600080fd5b8063095ea7b3116100c8578063095ea7b31461015757806323b872dd1461016c57806342842e0e1461017f5780636352211e1461019257600080fd5b806301ffc9a7146100ef57806306fdde0314610117578063081812fc1461012c575b600080fd5b6101026100fd366004610fc0565b61022d565b60405190151581526020015b60405180910390f35b61011f61027f565b60405161010e919061102d565b61013f61013a366004611040565b610311565b6040516001600160a01b03909116815260200161010e565b61016a610165366004611075565b610338565b005b61016a61017a36600461109f565b610452565b61016a61018d36600461109f565b610483565b61013f6101a0366004611040565b61049e565b6101b86101b33660046110db565b6104fe565b60405190815260200161010e565b61011f610584565b61016a6101dc3660046110f6565b610593565b61016a6101ef366004611148565b6105a2565b61011f610202366004611040565b6105da565b61016a610215366004611224565b6106ea565b6101026102283660046112a7565b610766565b60006001600160e01b031982166380ac58cd60e01b148061025e57506001600160e01b03198216635b5e139f60e01b145b8061027957506301ffc9a760e01b6001600160e01b03198316145b92915050565b60606000805461028e906112da565b80601f01602080910402602001604051908101604052809291908181526020018280546102ba906112da565b80156103075780601f106102dc57610100808354040283529160200191610307565b820191906000526020600020905b8154815290600101906020018083116102ea57829003601f168201915b5050505050905090565b600061031c82610794565b506000908152600460205260409020546001600160a01b031690565b60006103438261049e565b9050806001600160a01b0316836001600160a01b0316036103b55760405162461bcd60e51b815260206004820152602160248201527f4552433732313a20617070726f76616c20746f2063757272656e74206f776e656044820152603960f91b60648201526084015b60405180910390fd5b336001600160a01b03821614806103d157506103d18133610766565b6104435760405162461bcd60e51b815260206004820152603e60248201527f4552433732313a20617070726f76652063616c6c6572206973206e6f7420746f60448201527f6b656e206f776e6572206e6f7220617070726f76656420666f7220616c6c000060648201526084016103ac565b61044d83836107f6565b505050565b61045c3382610864565b6104785760405162461bcd60e51b81526004016103ac90611314565b61044d8383836108c2565b61044d838383604051806020016040528060008152506105a2565b6000818152600260205260408120546001600160a01b0316806102795760405162461bcd60e51b8152602060048201526018602482015277115490cdcc8c4e881a5b9d985b1a59081d1bdad95b88125160421b60448201526064016103ac565b60006001600160a01b0382166105685760405162461bcd60e51b815260206004820152602960248201527f4552433732313a2061646472657373207a65726f206973206e6f7420612076616044820152683634b21037bbb732b960b91b60648201526084016103ac565b506001600160a01b031660009081526003602052604090205490565b60606001805461028e906112da565b61059e338383610a5e565b5050565b6105ac3383610864565b6105c85760405162461bcd60e51b81526004016103ac90611314565b6105d484848484610b2c565b50505050565b60606105e582610794565b600082815260066020526040812080546105fe906112da565b80601f016020809104026020016040519081016040528092919081815260200182805461062a906112da565b80156106775780601f1061064c57610100808354040283529160200191610677565b820191906000526020600020905b81548152906001019060200180831161065a57829003601f168201915b50505050509050600061069560408051602081019091526000815290565b905080516000036106a7575092915050565b8151156106d95780826040516020016106c1929190611362565b60405160208183030381529060405292505050919050565b6106e284610b5f565b949350505050565b6008546001600160a01b0316331461070157600080fd5b61070f600780546001019055565b600061071a60075490565b90506107268482610bd3565b6105d48184848080601f016020809104026020016040519081016040528093929190818152602001838380828437600092019190915250610d1592505050565b6001600160a01b03918216600090815260056020908152604080832093909416825291909152205460ff1690565b6000818152600260205260409020546001600160a01b03166107f35760405162461bcd60e51b8152602060048201526018602482015277115490cdcc8c4e881a5b9d985b1a59081d1bdad95b88125160421b60448201526064016103ac565b50565b600081815260046020526040902080546001600160a01b0319166001600160a01b038416908117909155819061082b8261049e565b6001600160a01b03167f8c5be1e5ebec7d5bd14f71427d1e84f3dd0314c0f7b2291e5b200ac8c7c3b92560405160405180910390a45050565b6000806108708361049e565b9050806001600160a01b0316846001600160a01b0316148061089757506108978185610766565b806106e25750836001600160a01b03166108b084610311565b6001600160a01b031614949350505050565b826001600160a01b03166108d58261049e565b6001600160a01b0316146109395760405162461bcd60e51b815260206004820152602560248201527f4552433732313a207472616e736665722066726f6d20696e636f72726563742060448201526437bbb732b960d91b60648201526084016103ac565b6001600160a01b03821661099b5760405162461bcd60e51b8152602060048201526024808201527f4552433732313a207472616e7366657220746f20746865207a65726f206164646044820152637265737360e01b60648201526084016103ac565b6109a66000826107f6565b6001600160a01b03831660009081526003602052604081208054600192906109cf9084906113a7565b90915550506001600160a01b03821660009081526003602052604081208054600192906109fd9084906113ba565b909155505060008181526002602052604080822080546001600160a01b0319166001600160a01b0386811691821790925591518493918716917fddf252ad1be2c89b69c2b068fc378daa952ba7f163c4a11628f55a4df523b3ef91a4505050565b816001600160a01b0316836001600160a01b031603610abf5760405162461bcd60e51b815260206004820152601960248201527f4552433732313a20617070726f766520746f2063616c6c65720000000000000060448201526064016103ac565b6001600160a01b03838116600081815260056020908152604080832094871680845294825291829020805460ff191686151590811790915591519182527f17307eab39ab6107e8899845ad3d59bd9653f200f220920489ca2b5937696c31910160405180910390a3505050565b610b378484846108c2565b610b4384848484610da8565b6105d45760405162461bcd60e51b81526004016103ac906113cd565b6060610b6a82610794565b6000610b8160408051602081019091526000815290565b90506000815111610ba15760405180602001604052806000815250610bcc565b80610bab84610ea9565b604051602001610bbc929190611362565b6040516020818303038152906040525b9392505050565b6001600160a01b038216610c295760405162461bcd60e51b815260206004820181905260248201527f4552433732313a206d696e7420746f20746865207a65726f206164647265737360448201526064016103ac565b6000818152600260205260409020546001600160a01b031615610c8e5760405162461bcd60e51b815260206004820152601c60248201527f4552433732313a20746f6b656e20616c7265616479206d696e7465640000000060448201526064016103ac565b6001600160a01b0382166000908152600360205260408120805460019290610cb79084906113ba565b909155505060008181526002602052604080822080546001600160a01b0319166001600160a01b03861690811790915590518392907fddf252ad1be2c89b69c2b068fc378daa952ba7f163c4a11628f55a4df523b3ef908290a45050565b6000828152600260205260409020546001600160a01b0316610d905760405162461bcd60e51b815260206004820152602e60248201527f45524337323155524953746f726167653a2055524920736574206f66206e6f6e60448201526d32bc34b9ba32b73a103a37b5b2b760911b60648201526084016103ac565b600082815260066020526040902061044d828261146d565b60006001600160a01b0384163b15610e9e57604051630a85bd0160e11b81526001600160a01b0385169063150b7a0290610dec90339089908890889060040161152d565b6020604051808303816000875af1925050508015610e27575060408051601f3d908101601f19168201909252610e249181019061156a565b60015b610e84573d808015610e55576040519150601f19603f3d011682016040523d82523d6000602084013e610e5a565b606091505b508051600003610e7c5760405162461bcd60e51b81526004016103ac906113cd565b805181602001fd5b6001600160e01b031916630a85bd0160e11b1490506106e2565b506001949350505050565b606081600003610ed05750506040805180820190915260018152600360fc1b602082015290565b8160005b8115610efa5780610ee481611587565b9150610ef39050600a836115b6565b9150610ed4565b60008167ffffffffffffffff811115610f1557610f15611132565b6040519080825280601f01601f191660200182016040528015610f3f576020820181803683370190505b5090505b84156106e257610f546001836113a7565b9150610f61600a866115ca565b610f6c9060306113ba565b60f81b818381518110610f8157610f816115de565b60200101906001600160f81b031916908160001a905350610fa3600a866115b6565b9450610f43565b6001600160e01b0319811681146107f357600080fd5b600060208284031215610fd257600080fd5b8135610bcc81610faa565b60005b83811015610ff8578181015183820152602001610fe0565b50506000910152565b60008151808452611019816020860160208601610fdd565b601f01601f19169290920160200192915050565b602081526000610bcc6020830184611001565b60006020828403121561105257600080fd5b5035919050565b80356001600160a01b038116811461107057600080fd5b919050565b6000806040838503121561108857600080fd5b61109183611059565b946020939093013593505050565b6000806000606084860312156110b457600080fd5b6110bd84611059565b92506110cb60208501611059565b9150604084013590509250925092565b6000602082840312156110ed57600080fd5b610bcc82611059565b6000806040838503121561110957600080fd5b61111283611059565b91506020830135801515811461112757600080fd5b809150509250929050565b634e487b7160e01b600052604160045260246000fd5b6000806000806080858703121561115e57600080fd5b61116785611059565b935061117560208601611059565b925060408501359150606085013567ffffffffffffffff8082111561119957600080fd5b818701915087601f8301126111ad57600080fd5b8135818111156111bf576111bf611132565b604051601f8201601f19908116603f011681019083821181831017156111e7576111e7611132565b816040528281528a602084870101111561120057600080fd5b82602086016020830137600060208483010152809550505050505092959194509250565b60008060006040848603121561123957600080fd5b61124284611059565b9250602084013567ffffffffffffffff8082111561125f57600080fd5b818601915086601f83011261127357600080fd5b81358181111561128257600080fd5b87602082850101111561129457600080fd5b6020830194508093505050509250925092565b600080604083850312156112ba57600080fd5b6112c383611059565b91506112d160208401611059565b90509250929050565b600181811c908216806112ee57607f821691505b60208210810361130e57634e487b7160e01b600052602260045260246000fd5b50919050565b6020808252602e908201527f4552433732313a2063616c6c6572206973206e6f7420746f6b656e206f776e6560408201526d1c881b9bdc88185c1c1c9bdd995960921b606082015260800190565b60008351611374818460208801610fdd565b835190830190611388818360208801610fdd565b01949350505050565b634e487b7160e01b600052601160045260246000fd5b8181038181111561027957610279611391565b8082018082111561027957610279611391565b60208082526032908201527f4552433732313a207472616e7366657220746f206e6f6e20455243373231526560408201527131b2b4bb32b91034b6b83632b6b2b73a32b960711b606082015260800190565b601f82111561044d57600081815260208120601f850160051c810160208610156114465750805b601f850160051c820191505b8181101561146557828155600101611452565b505050505050565b815167ffffffffffffffff81111561148757611487611132565b61149b8161149584546112da565b8461141f565b602080601f8311600181146114d057600084156114b85750858301515b600019600386901b1c1916600185901b178555611465565b600085815260208120601f198616915b828110156114ff578886015182559484019460019091019084016114e0565b508582101561151d5787850151600019600388901b60f8161c191681555b5050505050600190811b01905550565b6001600160a01b038581168252841660208201526040810183905260806060820181905260009061156090830184611001565b9695505050505050565b60006020828403121561157c57600080fd5b8151610bcc81610faa565b60006001820161159957611599611391565b5060010190565b634e487b7160e01b600052601260045260246000fd5b6000826115c5576115c56115a0565b500490565b6000826115d9576115d96115a0565b500690565b634e487b7160e01b600052603260045260246000fdfea2646970667358221220b1d245dc934e221cd32c60d76c3226214f2ef3fe85f6310c2805e81711cee77b64736f6c63430008110033a26469706673582212209ce84946ad7cae73ba791aa18a1e08f00b949bb13d46f749726260cec94fa92464736f6c63430008110033",
  "linkReferences": {},
  "deployedLinkReferences": {}
}