{
  "_format": "hh-sol-artifact-1",
  "contractName": "NFTFactory",
  "sourceName": "contracts/NFTFactory.sol",
  "abi": [
    {
      "anonymous": false,
      "inputs": [
        {
          "indexed": false,
          "internalType": "uint256",
          "name": "_clientId",
          "type": "uint256"
        },
        {
          "indexed": false,
          "internalType": "address",
          "name": "_clientAddress",
          "type": "address"
        },
        {
          "indexed": false,
          "internalType": "string",
          "name": "_name",
          "type": "string"
        },
        {
          "indexed": false,
          "internalType": "string",
          "name": "_symbol",
          "type": "string"
        },
        {
          "indexed": false,
          "internalType": "address",
          "name": "_contractAddress",
          "type": "address"
        }
      ],
      "name": "CreateNFTEvent",
      "type": "event"
    },
    {
      "inputs": [
        {
          "internalType": "uint256",
          "name": "",
          "type": "uint256"
        },
        {
          "internalType": "uint256",
          "name": "",
          "type": "uint256"
        }
      ],
      "name": "childContracts",
      "outputs": [
        {
          "internalType": "address",
          "name": "",
          "type": "address"
        }
      ],
      "stateMutability": "view",
      "type": "function"
    },
    {
      "inputs": [
        {
          "internalType": "uint256",
          "name": "_clientId",
          "type": "uint256"
        },
        {
          "internalType": "address",
          "name": "_clientAddress",
          "type": "address"
        },
        {
          "internalType": "string",
          "name": "_name",
          "type": "string"
        },
        {
          "internalType": "string",
          "name": "_symbol",
          "type": "string"
        },
        {
          "internalType": "string[]",
          "name": "_ipfsURIS",
          "type": "string[]"
        }
      ],
      "name": "createNFT",
      "outputs": [],
      "stateMutability": "nonpayable",
      "type": "function"
    }
  ],
  "bytecode": "0x608060405234801561001057600080fd5b50612000806100206000396000f3fe608060405234801561001057600080fd5b50600436106100365760003560e01c806387dea8e11461003b578063c4a8502914610050575b600080fd5b61004e6100493660046101d3565b6100a0565b005b61008461005e3660046102c5565b60016020908152600092835260408084209091529082529020546001600160a01b031681565b6040516001600160a01b03909116815260200160405180910390f35b6000878787878787876040516100b59061017c565b6100c59796959493929190610310565b604051809103906000f0801580156100e1573d6000803e3d6000fd5b5060008a815260016020818152604080842084548552909152822080546001600160a01b0319166001600160a01b03851617905581549293509181906101289084906103e9565b90915550506040517f955ed2ed760f7e8cd669cea37101a99b0ab449cfbc2574ac54745e3c57ba69ba90610169908b908b908b908b908b908b908990610410565b60405180910390a1505050505050505050565b611b66806200046583390190565b60008083601f84011261019c57600080fd5b50813567ffffffffffffffff8111156101b457600080fd5b6020830191508360208285010111156101cc57600080fd5b9250929050565b60008060008060008060008060a0898b0312156101ef57600080fd5b8835975060208901356001600160a01b038116811461020d57600080fd5b9650604089013567ffffffffffffffff8082111561022a57600080fd5b6102368c838d0161018a565b909850965060608b013591508082111561024f57600080fd5b61025b8c838d0161018a565b909650945060808b013591508082111561027457600080fd5b818b0191508b601f83011261028857600080fd5b81358181111561029757600080fd5b8c60208260051b85010111156102ac57600080fd5b6020830194508093505050509295985092959890939650565b600080604083850312156102d857600080fd5b50508035926020909101359150565b81835281816020850137506000828201602090810191909152601f909101601f19169091010190565b6001600160a01b038816815260806020808301829052600091610336908401898b6102e7565b838103604085015261034981888a6102e7565b84810360608601528581529050818101600586901b820183018760005b888110156103d657848303601f190184528135368b9003601e1901811261038c57600080fd5b8a01868101903567ffffffffffffffff8111156103a857600080fd5b8036038213156103b757600080fd5b6103c28582846102e7565b958801959450505090850190600101610366565b50909d9c50505050505050505050505050565b8082018082111561040a57634e487b7160e01b600052601160045260246000fd5b92915050565b878152600060018060a01b03808916602084015260a0604084015261043960a08401888a6102e7565b838103606085015261044c8187896102e7565b9250508084166080840152509897505050505050505056fe60806040523480156200001157600080fd5b5060405162001b6638038062001b668339810160408190526200003491620001b3565b8282600062000044838262000383565b50600162000053828262000383565b5050600980546001600160a01b0319166001600160a01b0387161790555060005b8151811015620000d2578181815181106200009357620000936200044f565b6020026020010151600760008381526020019081526020016000209081620000bc919062000383565b5080620000c98162000465565b91505062000074565b50505050506200048d565b634e487b7160e01b600052604160045260246000fd5b604051601f8201601f191681016001600160401b03811182821017156200011e576200011e620000dd565b604052919050565b600082601f8301126200013857600080fd5b81516001600160401b03811115620001545762000154620000dd565b60206200016a601f8301601f19168201620000f3565b82815285828487010111156200017f57600080fd5b60005b838110156200019f57858101830151828201840152820162000182565b506000928101909101919091529392505050565b60008060008060808587031215620001ca57600080fd5b84516001600160a01b0381168114620001e257600080fd5b602086810151919550906001600160401b03808211156200020257600080fd5b6200021089838a0162000126565b955060408801519150808211156200022757600080fd5b6200023589838a0162000126565b945060608801519150808211156200024c57600080fd5b818801915088601f8301126200026157600080fd5b815181811115620002765762000276620000dd565b8060051b62000287858201620000f3565b918252838101850191858101908c841115620002a257600080fd5b86860192505b83831015620002e357825185811115620002c25760008081fd5b620002d28e89838a010162000126565b8352509186019190860190620002a8565b999c989b5096995050505050505050565b600181811c908216806200030957607f821691505b6020821081036200032a57634e487b7160e01b600052602260045260246000fd5b50919050565b601f8211156200037e57600081815260208120601f850160051c81016020861015620003595750805b601f850160051c820191505b818110156200037a5782815560010162000365565b5050505b505050565b81516001600160401b038111156200039f576200039f620000dd565b620003b781620003b08454620002f4565b8462000330565b602080601f831160018114620003ef5760008415620003d65750858301515b600019600386901b1c1916600185901b1785556200037a565b600085815260208120601f198616915b828110156200042057888601518255948401946001909101908401620003ff565b50858210156200043f5787850151600019600388901b60f8161c191681555b5050505050600190811b01905550565b634e487b7160e01b600052603260045260246000fd5b6000600182016200048657634e487b7160e01b600052601160045260246000fd5b5060010190565b6116c9806200049d6000396000f3fe608060405234801561001057600080fd5b50600436106101005760003560e01c806370a0823111610097578063a9f9b27d11610066578063a9f9b27d1461021d578063b88d4fde14610230578063c87b56dd14610243578063e985e9c51461025657600080fd5b806370a08231146101ce5780638da5cb5b146101ef57806395d89b4114610202578063a22cb4651461020a57600080fd5b806323b872dd116100d357806323b872dd1461018257806340c10f191461019557806342842e0e146101a85780636352211e146101bb57600080fd5b806301ffc9a71461010557806306fdde031461012d578063081812fc14610142578063095ea7b31461016d575b600080fd5b6101186101133660046110e2565b610269565b60405190151581526020015b60405180910390f35b6101356102bb565b604051610124919061114f565b610155610150366004611162565b61034d565b6040516001600160a01b039091168152602001610124565b61018061017b366004611197565b610374565b005b6101806101903660046111c1565b61048e565b6101806101a3366004611197565b6104bf565b6101806101b63660046111c1565b61058d565b6101556101c9366004611162565b6105a8565b6101e16101dc3660046111fd565b610608565b604051908152602001610124565b600954610155906001600160a01b031681565b61013561068e565b610180610218366004611218565b61069d565b61013561022b366004611162565b6106ac565b61018061023e36600461126a565b610746565b610135610251366004611162565b610778565b610118610264366004611346565b610888565b60006001600160e01b031982166380ac58cd60e01b148061029a57506001600160e01b03198216635b5e139f60e01b145b806102b557506301ffc9a760e01b6001600160e01b03198316145b92915050565b6060600080546102ca90611379565b80601f01602080910402602001604051908101604052809291908181526020018280546102f690611379565b80156103435780601f1061031857610100808354040283529160200191610343565b820191906000526020600020905b81548152906001019060200180831161032657829003601f168201915b5050505050905090565b6000610358826108b6565b506000908152600460205260409020546001600160a01b031690565b600061037f826105a8565b9050806001600160a01b0316836001600160a01b0316036103f15760405162461bcd60e51b815260206004820152602160248201527f4552433732313a20617070726f76616c20746f2063757272656e74206f776e656044820152603960f91b60648201526084015b60405180910390fd5b336001600160a01b038216148061040d575061040d8133610888565b61047f5760405162461bcd60e51b815260206004820152603e60248201527f4552433732313a20617070726f76652063616c6c6572206973206e6f7420746f60448201527f6b656e206f776e6572206e6f7220617070726f76656420666f7220616c6c000060648201526084016103e8565b6104898383610918565b505050565b6104983382610986565b6104b45760405162461bcd60e51b81526004016103e8906113b3565b6104898383836109e4565b600081815260076020526040812080546104d890611379565b80601f016020809104026020016040519081016040528092919081815260200182805461050490611379565b80156105515780601f1061052657610100808354040283529160200191610551565b820191906000526020600020905b81548152906001019060200180831161053457829003601f168201915b50505050509050610566600880546001019055565b600061057160085490565b905061057d8482610b80565b6105878183610cc2565b50505050565b61048983838360405180602001604052806000815250610746565b6000818152600260205260408120546001600160a01b0316806102b55760405162461bcd60e51b8152602060048201526018602482015277115490cdcc8c4e881a5b9d985b1a59081d1bdad95b88125160421b60448201526064016103e8565b60006001600160a01b0382166106725760405162461bcd60e51b815260206004820152602960248201527f4552433732313a2061646472657373207a65726f206973206e6f7420612076616044820152683634b21037bbb732b960b91b60648201526084016103e8565b506001600160a01b031660009081526003602052604090205490565b6060600180546102ca90611379565b6106a8338383610d55565b5050565b600760205260009081526040902080546106c590611379565b80601f01602080910402602001604051908101604052809291908181526020018280546106f190611379565b801561073e5780601f106107135761010080835404028352916020019161073e565b820191906000526020600020905b81548152906001019060200180831161072157829003601f168201915b505050505081565b6107503383610986565b61076c5760405162461bcd60e51b81526004016103e8906113b3565b61058784848484610e23565b6060610783826108b6565b6000828152600660205260408120805461079c90611379565b80601f01602080910402602001604051908101604052809291908181526020018280546107c890611379565b80156108155780601f106107ea57610100808354040283529160200191610815565b820191906000526020600020905b8154815290600101906020018083116107f857829003601f168201915b50505050509050600061083360408051602081019091526000815290565b90508051600003610845575092915050565b81511561087757808260405160200161085f929190611401565b60405160208183030381529060405292505050919050565b61088084610e56565b949350505050565b6001600160a01b03918216600090815260056020908152604080832093909416825291909152205460ff1690565b6000818152600260205260409020546001600160a01b03166109155760405162461bcd60e51b8152602060048201526018602482015277115490cdcc8c4e881a5b9d985b1a59081d1bdad95b88125160421b60448201526064016103e8565b50565b600081815260046020526040902080546001600160a01b0319166001600160a01b038416908117909155819061094d826105a8565b6001600160a01b03167f8c5be1e5ebec7d5bd14f71427d1e84f3dd0314c0f7b2291e5b200ac8c7c3b92560405160405180910390a45050565b600080610992836105a8565b9050806001600160a01b0316846001600160a01b031614806109b957506109b98185610888565b806108805750836001600160a01b03166109d28461034d565b6001600160a01b031614949350505050565b826001600160a01b03166109f7826105a8565b6001600160a01b031614610a5b5760405162461bcd60e51b815260206004820152602560248201527f4552433732313a207472616e736665722066726f6d20696e636f72726563742060448201526437bbb732b960d91b60648201526084016103e8565b6001600160a01b038216610abd5760405162461bcd60e51b8152602060048201526024808201527f4552433732313a207472616e7366657220746f20746865207a65726f206164646044820152637265737360e01b60648201526084016103e8565b610ac8600082610918565b6001600160a01b0383166000908152600360205260408120805460019290610af1908490611446565b90915550506001600160a01b0382166000908152600360205260408120805460019290610b1f908490611459565b909155505060008181526002602052604080822080546001600160a01b0319166001600160a01b0386811691821790925591518493918716917fddf252ad1be2c89b69c2b068fc378daa952ba7f163c4a11628f55a4df523b3ef91a4505050565b6001600160a01b038216610bd65760405162461bcd60e51b815260206004820181905260248201527f4552433732313a206d696e7420746f20746865207a65726f206164647265737360448201526064016103e8565b6000818152600260205260409020546001600160a01b031615610c3b5760405162461bcd60e51b815260206004820152601c60248201527f4552433732313a20746f6b656e20616c7265616479206d696e7465640000000060448201526064016103e8565b6001600160a01b0382166000908152600360205260408120805460019290610c64908490611459565b909155505060008181526002602052604080822080546001600160a01b0319166001600160a01b03861690811790915590518392907fddf252ad1be2c89b69c2b068fc378daa952ba7f163c4a11628f55a4df523b3ef908290a45050565b6000828152600260205260409020546001600160a01b0316610d3d5760405162461bcd60e51b815260206004820152602e60248201527f45524337323155524953746f726167653a2055524920736574206f66206e6f6e60448201526d32bc34b9ba32b73a103a37b5b2b760911b60648201526084016103e8565b600082815260066020526040902061048982826114ba565b816001600160a01b0316836001600160a01b031603610db65760405162461bcd60e51b815260206004820152601960248201527f4552433732313a20617070726f766520746f2063616c6c65720000000000000060448201526064016103e8565b6001600160a01b03838116600081815260056020908152604080832094871680845294825291829020805460ff191686151590811790915591519182527f17307eab39ab6107e8899845ad3d59bd9653f200f220920489ca2b5937696c31910160405180910390a3505050565b610e2e8484846109e4565b610e3a84848484610eca565b6105875760405162461bcd60e51b81526004016103e89061157a565b6060610e61826108b6565b6000610e7860408051602081019091526000815290565b90506000815111610e985760405180602001604052806000815250610ec3565b80610ea284610fcb565b604051602001610eb3929190611401565b6040516020818303038152906040525b9392505050565b60006001600160a01b0384163b15610fc057604051630a85bd0160e11b81526001600160a01b0385169063150b7a0290610f0e9033908990889088906004016115cc565b6020604051808303816000875af1925050508015610f49575060408051601f3d908101601f19168201909252610f4691810190611609565b60015b610fa6573d808015610f77576040519150601f19603f3d011682016040523d82523d6000602084013e610f7c565b606091505b508051600003610f9e5760405162461bcd60e51b81526004016103e89061157a565b805181602001fd5b6001600160e01b031916630a85bd0160e11b149050610880565b506001949350505050565b606081600003610ff25750506040805180820190915260018152600360fc1b602082015290565b8160005b811561101c578061100681611626565b91506110159050600a83611655565b9150610ff6565b60008167ffffffffffffffff81111561103757611037611254565b6040519080825280601f01601f191660200182016040528015611061576020820181803683370190505b5090505b841561088057611076600183611446565b9150611083600a86611669565b61108e906030611459565b60f81b8183815181106110a3576110a361167d565b60200101906001600160f81b031916908160001a9053506110c5600a86611655565b9450611065565b6001600160e01b03198116811461091557600080fd5b6000602082840312156110f457600080fd5b8135610ec3816110cc565b60005b8381101561111a578181015183820152602001611102565b50506000910152565b6000815180845261113b8160208601602086016110ff565b601f01601f19169290920160200192915050565b602081526000610ec36020830184611123565b60006020828403121561117457600080fd5b5035919050565b80356001600160a01b038116811461119257600080fd5b919050565b600080604083850312156111aa57600080fd5b6111b38361117b565b946020939093013593505050565b6000806000606084860312156111d657600080fd5b6111df8461117b565b92506111ed6020850161117b565b9150604084013590509250925092565b60006020828403121561120f57600080fd5b610ec38261117b565b6000806040838503121561122b57600080fd5b6112348361117b565b91506020830135801515811461124957600080fd5b809150509250929050565b634e487b7160e01b600052604160045260246000fd5b6000806000806080858703121561128057600080fd5b6112898561117b565b93506112976020860161117b565b925060408501359150606085013567ffffffffffffffff808211156112bb57600080fd5b818701915087601f8301126112cf57600080fd5b8135818111156112e1576112e1611254565b604051601f8201601f19908116603f0116810190838211818310171561130957611309611254565b816040528281528a602084870101111561132257600080fd5b82602086016020830137600060208483010152809550505050505092959194509250565b6000806040838503121561135957600080fd5b6113628361117b565b91506113706020840161117b565b90509250929050565b600181811c9082168061138d57607f821691505b6020821081036113ad57634e487b7160e01b600052602260045260246000fd5b50919050565b6020808252602e908201527f4552433732313a2063616c6c6572206973206e6f7420746f6b656e206f776e6560408201526d1c881b9bdc88185c1c1c9bdd995960921b606082015260800190565b600083516114138184602088016110ff565b8351908301906114278183602088016110ff565b01949350505050565b634e487b7160e01b600052601160045260246000fd5b818103818111156102b5576102b5611430565b808201808211156102b5576102b5611430565b601f82111561048957600081815260208120601f850160051c810160208610156114935750805b601f850160051c820191505b818110156114b25782815560010161149f565b505050505050565b815167ffffffffffffffff8111156114d4576114d4611254565b6114e8816114e28454611379565b8461146c565b602080601f83116001811461151d57600084156115055750858301515b600019600386901b1c1916600185901b1785556114b2565b600085815260208120601f198616915b8281101561154c5788860151825594840194600190910190840161152d565b508582101561156a5787850151600019600388901b60f8161c191681555b5050505050600190811b01905550565b60208082526032908201527f4552433732313a207472616e7366657220746f206e6f6e20455243373231526560408201527131b2b4bb32b91034b6b83632b6b2b73a32b960711b606082015260800190565b6001600160a01b03858116825284166020820152604081018390526080606082018190526000906115ff90830184611123565b9695505050505050565b60006020828403121561161b57600080fd5b8151610ec3816110cc565b60006001820161163857611638611430565b5060010190565b634e487b7160e01b600052601260045260246000fd5b6000826116645761166461163f565b500490565b6000826116785761167861163f565b500690565b634e487b7160e01b600052603260045260246000fdfea2646970667358221220442d0f74aea89973eeef9eef02f368eca8c1cc50e63f83545e62491935fe97d964736f6c63430008110033a264697066735822122018ee6e1ce3771c3f531c32d054e655e3863c675e5a7afa74f30f537fbd6c3d0164736f6c63430008110033",
  "linkReferences": {},
  "deployedLinkReferences": {}
}